:020000040800F2
:100000001044002061020008D70C0008D30C00083F
:10001000D50C000891030008A10E000800000000A4
:10002000000000000000000000000000A101000826
:100030009303000800000000FD010008FD0C00080B
:100040007B0200087B0200087B0200087B0200089C
:100050007B0200087B0200087B0200087B0200088C
:100060007B0200087B0200087B0200087B0200087C
:100070007B0200087B0200087B0200087B0200086C
:100080007B0200087B0200087B0200087B0200085C
:100090007B0200087B0200087B0200087B0200084C
:1000A0007B020008CD0D00087B0200087B020008DF
:1000B0007B0200087B0200087B0200087B0200082C
:1000C0007B0200087B0200087B0200087B0200081C
:1000D0007B0200087B0200087B0200087B0200080C
:1000E0007B0200087B0200087B0200087B020008FC
:1000F0007B0200087B0200087B0200087B020008EC
:100100007B0200087B0200087B0200087B020008DB
:100110007B0200087B0200087B0200087B020008CB
:100120007B0200087B0200087B0200087B020008BB
:100130007B0200087B0200087B0200087B020008AB
:100140007B0200087B0200087B0200087B0200089B
:100150007B0200087B0200087B0200087B0200088B
:100160007B0200087B0200087B0200087B0200087B
:100170007B0200087B0200087B02000800000000F0
:100180007B0200087B020008DFF810D000F0EEF8D8
:1001900000480047290F0008AFF3008010440020FA
:1001A0002C4B19680868B0E8F04F80F30988BFF35A
:1001B0006F8F4FF0000080F311887047000000003F
:1001C00008480068006880F308884FF0000080F35A
:1001D000148862B661B6BFF34F8FBFF36F8F00DF35
:1001E00000BF00BF08ED00E0DFF80C00016841F43B
:1001F00070010160704700BF88ED00E0EFF30980F7
:10020000BFF36F8F134B1A681EF0100F08BF20ED5D
:10021000108A20E9F04F106009B44FF0500080F3CD
:100220001188BFF34F8FBFF36F8F01F03BFA4FF090
:10023000000080F3118809BC19680868B0E8F04F25
:100240001EF0100F08BFB0EC108A80F30988BFF3CE
:100250006F8F704714000020EFF305807047000097
:100260000648804706480047FEE7FEE7FEE7FEE750
:10027000FEE7FEE7FEE7FEE7FEE7FEE7BD0D00084E
:10028000890100082DE9F05F0546002092469B4653
:1002900088460646814640241BE02846414647469C
:1002A000224600F053F853465A46C01A914110D3E3
:1002B00011461846224600F03AF82D1A67EB01085D
:1002C0004F4622460120002100F031F817EB0009CB
:1002D0004E41201EA4F10104DFDC484631462A4687
:1002E0004346BDE8F09F40EA01039B0703D009E0C5
:1002F00008C9121F08C0042AFAD203E011F8013B12
:1003000000F8013B521EF9D27047D2B201E000F86A
:10031000012B491EFBD270470022F6E710B51346A9
:100320000A4604461946FFF7F0FF204610BD202A72
:1003300004DB203A00FA02F1002070479140C2F13C
:10034000200320FA03F3194390407047202A04DB6E
:10035000203A21FA02F00021704721FA02F3D0403E
:10036000C2F120029140084319467047064C074DE0
:1003700006E0E06840F0010394E807009847103475
:10038000AC42F6D3FFF704FF741A0008941A000871
:10039000FEE77047014880687047000004000020B5
:1003A000024881680278114481607047040000208F
:1003B0000B4810B5016841F400710160016841F417
:1003C00080610160016841F480710160032000F0E8
:1003D0008DF8002000F006F800F03EF8002010BD77
:1003E000003C024010B5014688B00022192000F000
:1003F0005DF8192000F04CF813480024016841F022
:1004000001010160006805A900F00100069068463E
:1004100000F018F900F036F90C494000B0FBF1F19A
:100420000C480B4A491E026040F2E732C0E903243F
:10043000C0E9011400F01EFB10B1012008B010BD8E
:10044000044800F045FBF9E74438024040420F0001
:1004500000000140D40200200C4882B0016841F441
:1004600080410160006800F4804000900748001F50
:10047000016841F0805101600068002200F0805066
:1004800000900F21901E02B000F010B844380240D6
:10049000002809DB00F01F02012191404009800083
:1004A00000F1E020C0F8001170470000F0B40E4BDE
:1004B0001B680C46C3F30223C3F10705042D00D9C2
:1004C0000425191D072901D2002300E0DB1E0126A7
:1004D00006FA05F1491E214099409E40761E1640BD
:1004E0003143F0BC00F0E6BC0CED00E0064900F042
:1004F000070208684FF6FF03184040EA0220034A4B
:1005000010430860704700000CED00E00000FA05A1
:100510002DE9F0470E46050065D0DFF81481D8F8C4
:100520000000F7B200F00700B04207D288F8007070
:10053000D8F8000000F00700B04254D128683D4CC4
:10054000810712D5400703D5206840F4E0502060B1
:100550002878000703D5206840F4604020602068B8
:10056000A96820F0F000084320602878C0072DD04B
:10057000304968680839012812D0022813D00328AE
:1005800011D00968890700292DDA216821F00301BB
:1005900001432160FFF7FEFE814641F2883A0EE0FA
:1005A00009688903EFE709688901ECE7FFF7F2FEC4
:1005B000A0EB0901514502D90320BDE8F08720686E
:1005C000696800F00C00B0EB810FEFD1D8F8001093
:1005D000404601F00701B14207D90770006800F0FA
:1005E0000700B04201D00120E7E72878400705D591
:1005F0002068E96820F4E05008432060287800076C
:1006000006D52068296920F4604040EAC1002060D6
:1006100000F048F82168084AC1F30311515CC84052
:100620000649086006480068FFF7DCFE0020C4E7C2
:10063000003C024008380240501A00081000002018
:10064000080000200F2202600C4A136803F0030325
:100650004360136803F0F0038360136803F4E0530E
:10066000C36012684FF4E05303EAD2020261044807
:10067000006800F00700086070470000083802407A
:10068000003C02400448054900680968044AC1F377
:100690004231515CC84070471000002008380240C9
:1006A000601A0008154810B5006810F00C021448D4
:1006B00013D04110042A0FD0082A0ED10F4C241F4A
:1006C0002268236802F03F025B0207D52068C0F36E
:1006D0008810A0FB010106E0084610BD2168C1F3A7
:1006E0008811A1FB00010023FFF7CCFD2168C1F3B5
:1006F0000141491C4900B0FBF1F010BD083802402F
:100700000024F4002DE9F84F04006ED02078DFF8C3
:100710004C93C007A9F104054AD009F1040001680F
:10072000C1F38101012908D00068C0F381000228CB
:100730000AD1D9F80000400206D52868800337D5D1
:1007400060680028E1D033E06068B0F5803F10D0E9
:10075000B0F5A02F286810D020F4803028602868D9
:1007600020F4802028606068A8B1FFF713FE0646D9
:100770000DE0286840F48030F4E740F480202860E1
:10078000F7E700BFFFF706FE801B642873D82868D0
:100790008003F7D50CE0FFF7FDFD064605E000BF3E
:1007A000FFF7F8FD801B6428F0D828688003F7D491
:1007B0002078DFF8AC8280074FF0000A3ED5A748CA
:1007C000001D016811F00C0F08D00068C0F3810013
:1007D00002280BD1D9F80000400207D4286880070E
:1007E00016D5E068012800D112E033E1E068B8B125
:1007F0000120C8F80000FFF7CDFD064605E000BF68
:10080000FFF7C8FD801B0228C0D828688007F7D5ED
:100810002868216920F0F80040EAC10028600DE056
:10082000C8F800A0FFF7B6FD064604E0FFF7B2FDEA
:10083000801B02281FD828688007F7D4207800077B
:1008400022D5864F87486169703771B101210160F7
:10085000FFF7A0FD064604E0FFF79CFD801B022881
:1008600009D838688007F7D50EE0C0F800A0FFF778
:1008700091FD064605E082E0FFF78CFD801B022813
:100880007DD838688007F7D42078400768D5DFF82E
:10089000CCB100270BF13C0BDBF80000C0000BD4FF
:1008A000DBF8001041F08051CBF80010DBF80000BD
:1008B000012700F0805000906B4E3068C00510D4C6
:1008C000306840F480703060FFF764FD009005E010
:1008D000FFF760FD0099401A022850D83068C00523
:1008E000F6D55E4EA0686C3601280FD0052830681A
:1008F00010D020F001003060306820F0040030603B
:10090000A068B8B1FFF746FD00900FE0306840F0F6
:100910000100F4E740F004003060F7E7FFF73AFD2C
:100920000099411A41F28830814266D830688007C8
:10093000F4D50EE0FFF72EFD009007E0FFF72AFD4B
:100940000099411A41F28830814256D830688007B8
:10095000F4D42FB1DBF8001021F08051CBF8001057
:10096000A069C8B33D49091D0968C1F38101022985
:100970004AD00228504607D0C8F8600000E03CE0AA
:10098000FFF708FD04463BE04746C8F86000FFF764
:1009900001FD064605E000BFFFF7FCFC801B0228B6
:1009A0002BD828688001F7D4D4E907010843A16A4D
:1009B0002E4A490802EB0141626A41EA821108436A
:1009C00094F82C1040EA0161C9F800100120386643
:1009D000FFF7E0FC044606E03EE000BFFFF7DAFC6C
:1009E000001B022809D828688001F7D534E000BF31
:1009F000FFF7D0FC001B022802D90320BDE8F88FC6
:100A000028688001F4D427E00128F7D0D9F8000045
:100A1000E26900F4800191421CD1226A00F03F019A
:100A2000914217D147F6C071626A0140B1EB821F53
:100A300010D1A26A4FF0FF3300F4403103EB5202B1
:100A4000B1EB024F06D194F82C1000F07060B0EBBF
:100A5000016F01D00120D1E70020CFE70438024028
:100A600000004742800E4742007000400000FFFF38
:100A70007047704710B5040003D094F83D0010B1E2
:100A800007E0012010BD002084F83C00204600F063
:100A90001EF8022084F83D00211D206800F09CF91A
:100AA000012084F8460084F83E0084F83F0084F872
:100AB000400084F8410084F8420084F8430084F840
:100AC000440084F8450084F83D00002010BD7047C4
:100AD00090F83D10012901D001207047022180F8D3
:100AE0003D100168CA6842F00102CA6000681149FD
:100AF000884214D0B0F1804F11D00F4988420ED0F7
:100B00000E4988420BD00E49884208D00D498842D0
:100B100005D00D49884202D00C49884204D1816831
:100B200001F00701062903D0016841F001010160CD
:100B30000020704700000140000400400008004011
:100B4000000C00400004014000400140001800403B
:100B5000704770B50446006801694FF00005C9434D
:100B6000890715D4C168C943890711D4E91E0161F9
:100B700001202077206880698007204602D0FFF797
:100B8000E7FF04E000F098F8204600F096F825779B
:100B900020680169C943490717D4C168C943490797
:100BA00013D46FF00401016102202077206880696E
:100BB00010F4407F204602D0FFF7CAFF04E000F0A7
:100BC0007BF8204600F079F8257720680169C94351
:100BD000090716D4C168C943090712D46FF0080188
:100BE0000161042020772068C0698007204602D078
:100BF000FFF7AEFF04E000F05FF8204600F05DF87C
:100C0000257720680169C943C90617D4C168C9435B
:100C1000C90613D46FF01001016108202077206805
:100C2000C06910F4407F204602D0FFF791FF04E036
:100C300000F042F8204600F040F82577206801696E
:100C4000C943C90708D1C168C943C90704D1891E6E
:100C50000161204600F032F820680169C9430906A5
:100C600009D4C168C943090605D46FF08001016148
:100C70002046FFF7FDFE20680169C943490609D4F3
:100C8000C168C943490605D46FF04001016120469F
:100C900000F01EF820680169C94389060BD4C168B9
:100CA000C943890607D46FF0200101612046BDE8E1
:100CB0007040FFF7DEBE70BD7047704700680349A3
:100CC000884201D1FFF76CBB704700000000014073
:100CD0007047FEE7FEE7FEE74FF47A7403A000F0EA
:100CE000E1F8204600F052F9F8E70000446566613B
:100CF000756C745461736B0A0000000010B55020CD
:100D000080F31188BFF34F8FBFF36F8F00F0CAFDE0
:100D100018B104494FF080500860002080F311881A
:100D200010BD000004ED00E030B593B030216846FE
:100D3000FFF7F2FA14210CA8FFF7EEFA1D48002580
:100D4000016841F080510160006800F0805011900E
:100D50001948016841F4804101600068022400F4F0
:100D60008040119001200090000401908001CDE9A5
:100D7000064008AA0420A82182E813000B906846C8
:100D8000FFF7C0FC08B172B6FEE70CA90F2081E89E
:100D900031004FF4A0500F904FF480501090052177
:100DA0000CA8FFF7B5FB002801D072B6FEE713B020
:100DB00030BD000040380240007000400248016829
:100DC00041F470010160704788ED00E00148FFF7D1
:100DD000C0BE0000D4020020F0B50268254C264DAC
:100DE000264E274F274B4FF0804CA04209D060453C
:100DF00007D0A84205D0B04203D0B84201D09842F3
:100E000004D122F0700E4A6842EA0E02A0421BD0C2
:100E1000604519D0A84217D0B04215D0B84213D0BF
:100E2000984211D0184DA8420ED0184DA8420BD0B0
:100E3000174DA84208D0174DA84205D0164DA8421C
:100E400002D0164DA84203D122F44075CA682A4345
:100E50004D6922F080022A4302608A68C2620A68F1
:100E60008262A04201D0984201D109690163012147
:100E70004161F0BD00000140000400400008004056
:100E8000000C0040000401400040014000440140CB
:100E90000048014000180040001C004000200040B5
:100EA000FEE70000014A024900F023B8150F0008D0
:100EB0007C0000200907090E002804DB00F1E02077
:100EC00080F80014704700F00F0000F1E02080F877
:100ED000141D704702E008C8121F08C1002AFAD189
:100EE00070477047002001E001C1121F002AFBD1AA
:100EF00070472DE9F04116460F460446002503E0F1
:100F00003946B047641C6D1C20780028F8D128466B
:100F1000BDE8F08138B504468DF80000694603202D
:100F2000ABBE204638BD000088B0FFF741FAFFF79E
:100F3000FBFE0D48016841F080010160006800F08F
:100F40008000079009A0FFF7ADFF1C220A49684600
:100F5000FFF7C9F90021684600F024F80749086046
:100F600000F01BF8FEE70000303802407374617235
:100F700074696E672E2E2E00341A000800000020BF
:100F800001460020842900D0C81C704710B500B964
:100F9000012000F023FB002010BD10B500F044FB41
:100FA000002010BD7FB50D4604464169B0F9080028
:100FB00081B1A16971B1FFF7E3FFD4E905128DE8B2
:100FC0000700D4E900102B46226900F040FC039092
:100FD00004B070BDFFF7D4FF03A9CDE90001208A5A
:100FE0002B4682B2D4E9001000F004FC012801D0A5
:100FF0000020EDE70398EBE72DE9F041184C0F4690
:101000000546E6682068001D00F020FA38B920681F
:1010100090F82C1001208840216981432161681CCF
:1010200007D137B12168BDE8F0410E48091D00F035
:1010300051BA20683544B5424560216805D2A06B9D
:10104000BDE8F041091D00F02DBA606B091D00F0EC
:1010500029FAA06A854200D2A562BDE8F0810000AD
:1010600014000020F80300202DE9F041054600F0AF
:101070003DFA2E4CA068401CA06020682C4F10B197
:10108000606940B32DE02560A068012829D10026C1
:1010900006EB860007EB800000F0F6F9761C072EC1
:1010A000F6D323488C3000F0EFF92148A03000F04F
:1010B000EBF91F48B43000F0E7F91D48C83000F0E4
:1010C000E3F91B48DC3000F0DFF919488C3060632D
:1010D0001430A06305E02068E96AC06A884200D83D
:1010E0002560606A401C6062E96A012022698840CC
:1010F0001043206101EB810007EB8000291D00F007
:10110000E9F900F013FA606900280CD02068E96A58
:10111000C06A884207D207494FF080500860BFF389
:101120004F8FBFF36F8FBDE8F081000014000020E7
:101130001C03002004ED00E010B5044690F85100B7
:1011400058B101280CD002280FD0502080F311880C
:10115000BFF34F8FBFF36F8FFEE7206B00F0FAF9FC
:101160002046BDE8104000F0F5B910BD10484FF41E
:101170007051420706D0C01D0D4920F00700411AEA
:10118000C1F570510B4A00230144C2E9000308393C
:10119000183A21F0070111604B600B600B1AC0E98F
:1011A000001393604FF0004053605061704700009F
:1011B0000C04002068000020144E154CA6F1C8074E
:1011C0004FF08058DFF84C9012E000BF00F08EF92D
:1011D000F068C568281D00F039F9A068401EA060BD
:1011E0006068401E606000F0A1F92846FFF7A4FF88
:1011F00060680028EAD138680128F9D9C9F8008068
:10120000BFF34F8FBFF36F8FF2E70000E4030020BE
:101210001400002004ED00E02DE9F0479A46DDE9D6
:10122000098481466FF00303206B03EB82021044B4
:10123000089E20F00707780707D0502080F3118818
:10124000BFF34F8FBFF36F8FFEE7002561B1002022
:1012500023180A5C83F834200A5C12B1401C102861
:10126000F6D384F8435001E084F83450072E00D3BD
:101270000626E662C4E91165201D00F010F904F1AC
:10128000180000F00CF92461C6F107006462A06147
:10129000E56484F8505052464946384600F0C0F89C
:1012A0002060B8F1000F01D0C8F80040BDE8F08719
:1012B00030B5114900E011460A688242FBD34B6801
:1012C0005C18844203D1406818444860084643686B
:1012D0001C18944209D1084C183C2468A24209D039
:1012E00052681A4442600A6812680260814200D063
:1012F000086030BD0460F9E7680000200648416BD3
:10130000096829B1416BC968C96849688162704739
:101310004FF0FF31FAE70000140000200848406851
:10132000401C4FF0500080F3118804D0BFF34F8F62
:10133000BFF36F8FFEE7BFF34F8FBFF36F8FFEE7F3
:10134000700000202DE9F0410546002700F0A2F9C9
:10135000324E306808B9FFF709FF706905424ED177
:10136000C5B3083568070ED005F00700C0F10800C6
:101370000544680707D0502080F31188BFF34F8FD2
:10138000BFF36F8FFEE72DB37068854237D82348CF
:10139000183001460C6801E020460C466168A942FD
:1013A00002D221680029F7D131688C4227D0076822
:1013B0002168016060680837411B10290FD9601946
:1013C000420708D0502080F31188BFF34F8FBFF33E
:1013D0006F8FFEE713E041606560FFF769FF6168AA
:1013E0007068401A7060B268904200D2B060706954
:1013F00001430020C4E90001F068401CF06000F0E7
:10140000B7FA780707D0502080F31188BFF34F8FC9
:10141000BFF36F8FFEE73846BDE8F0815000002033
:1014200010B5031F4FF080741C601B1F21F00101D9
:101430001960191F044B0B6014390A60091F6FF003
:10144000020244380A6010BD1D130008D0E90132C1
:1014500001699A60D0E901235A604A68824201D149
:1014600082684A60002202610868401E08600868BD
:1014700070470000034B036003F1540008608020B4
:10148000106070478000002000F108014FF0FF322B
:10149000C0E90112C16001610021016070470021B3
:1014A0000161704730B50B685A1C02D000F1080288
:1014B00002E0026904E02246546825689D42FAD998
:1014C00053684B6099608A60516008610168491CEB
:1014D000016030BD42684A6093688B6093685960D0
:1014E000916008610168491C01607047502080F3D9
:1014F0001188BFF34F8FBFF36F8F0A494868401CB4
:10150000486001280CD10848006810F0FF0F07D090
:10151000502080F31188BFF34F8FBFF36F8FFEE72A
:10152000704700007000002004ED00E008494868A2
:1015300028B1401E486001D180F3118870475020C7
:1015400080F31188BFF34F8FBFF36F8FFEE700006A
:101550007000002070B500282AD0164DA0F10804B4
:1015600060686969084207D1502080F31188BFF391
:101570004F8FBFF36F8FFEE722683AB1502080F3A0
:101580001188BFF34F8FBFF36F8FFEE78843606012
:1015900000F080F860686968084468602046FFF7DA
:1015A00087FE2869401C2861BDE8704000F0E0B962
:1015B00070BD0000500000204FF0E02000210161CC
:1015C000816105494FF47A720968B1FBF2F1491E55
:1015D00041610721016170471000002010B5020031
:1015E00014D00F48006B38B1502080F31188BFF33E
:1015F0004F8FBFF36F8FFEE700F04CF800211046CD
:10160000FFF7FAFC00F0B4F9002807D105494FF0C4
:1016100080500860BFF34F8FBFF36F8F10BD000085
:101620001400002004ED00E010B586B000240394FF
:1016300005AA04A903A80494FFF71CFFDDE9030130
:101640000094CDE9011000230EA11048059A00F086
:10165000FEF80F490028C86211D0502080F311888D
:10166000BFF34F8FBFF36F8F4FF0FF3088620120C1
:101670004861CC6006B0BDE8104000F041B806B04B
:1016800010BD000049444C4500000000B91100089D
:10169000140000200248016B491C016370470000E0
:1016A000140000201448016B11B10121C161704781
:1016B0000021C1610169B1FA81F1C1F11F0101EBA2
:1016C00081020E4951F822306BB101EB820101F128
:1016D00008034A6852684A609A4201D152684A60D7
:1016E000D16801607047502080F31188BFF34F8F9D
:1016F000BFF36F8FFEE70000140000201C030020E2
:101700001CB537480168374A914207D1502080F311
:101710001188BFF34F8FBFF36F8FFEE70068314929
:10172000491E884207D1502080F31188BFF34F8FA4
:10173000BFF36F8FFEE72C4908780190FF200870F7
:1017400008788DF800009DF800009DF8002000F05A
:10175000F000904207D0502080F31188BFF34F8FE4
:10176000BFF36F8FFEE79DF80000204C00F05000A3
:1017700020700720A06005E09DF8002052008DF841
:101780000020401E9DF800201206F5D4A06003281A
:1017900007D0502080F31188BFF34F8FBFF36F8FB6
:1017A000FEE74FF44070A060019808700C482030AC
:1017B000016841F470010160016841F0704101600D
:1017C000FFF7FAFE00206060FEF70EFD0848016892
:1017D00041F040410160FEF7F3FC00201CBD000019
:1017E00000ED00E071C20F4100E400E07000002055
:1017F00034EF00E02DE9FF5F8346DDE90E8799466F
:1018000016468A469000FFF79DFD05001CD0542027
:10181000FFF798FD040014D00020256384F85100E0
:10182000CDE90240CDE900874B4632465146584645
:10183000FFF7F2FC2046FFF717FC012004B0BDE8DB
:10184000F09F2846FFF786FE4FF0FF30F6E7F0B531
:1018500085B0DDE90B640A9DA6B1DCB15427009781
:101860002663022684F85160002604AFCDE90246C3
:10187000CDE90057FFF7D0FC2046FFF7F5FB0498B1
:1018800005B0F0BD502080F31188BFF34F8FBFF338
:101890006F8FFEE7502080F31188BFF34F8FBFF3A7
:1018A0006F8FFEE72DE9F0412F4C0026206B28B109
:1018B000A069401CA0613046BDE8F081E5686D1C60
:1018C000E56013D1606B006838B1502080F3118857
:1018D000BFF34F8FBFF36F8FFEE7606BA16B616348
:1018E000A063206A401C2062FFF708FDA06ADFF8B1
:1018F0007C80854209D3606B0068A0B1606BC068D2
:10190000C7687868854211D2A0622068C06A00EB7F
:10191000800158F82100012800D90126E06900283B
:10192000C9D00126C7E74FF0FF30EDE7381DFFF7BC
:101930008DFDB86A18B107F11800FFF787FDF96A45
:101940000120226988401043206101EB810108EBEE
:101950008100391DFFF7BEFDF86A2168C96A884217
:10196000C9D30126C7E70000140000201C03002093
:101970002DE9F0472C4D00242746286B38B1FFF79E
:10198000B5FD286B401E2863286B40B146E050200F
:1019900080F31188BFF34F8FBFF36F8FFEE7A96805
:1019A000224E0120D1B3A6F1B40980463068E8B1D7
:1019B000F068C46804F11800FFF748FD201DFFF728
:1019C00045FDE06A2A6908FA00F11143296100EB3C
:1019D000800109EB8100211DFFF77CFDE06A296889
:1019E000C96A8842E2D3C5F81C80DFE70CB1FFF773
:1019F00085FCAC6944B14646FFF754FF00B1EE6187
:101A0000641EF9D10020A861E86938B108490127AE
:101A100038070860BFF34F8FBFF36F8FFFF786FD66
:101A20003846BDE8F087000014000020D0030020F5
:101A300004ED00E0681A0008D90C0008000000005E
:101A40000000000080000000000000000000000016
:101A5000000000000000000001020304060708095E
:101A6000000000000102030464656661756C745433
:101A700061736B00941A00080000002080000000D1
:101A8000D40E0008141B00088000002090430000C2
:101A9000E40E00080000000001000000100000003B
:101AA000000000000024F40000000000000000001E
:101AB0000000000000000000000000000000000026
:101AC0000000000000000000000000000000000016
:101AD0000000000000000000000000000000000006
:101AE00000000000000000000000000000000000F6
:101AF00000000000000000000000000000000000E6
:101B00000000000000000000AAAAAAAA000000002D
:041B100000000000D1
:040000050800018965
:00000001FF
